{
  "transactions": [
    {
      "hash": "0xb5414c0165cbfaf5c209b79dead9211cbd715b137fface0f3ce7015c7fac585f",
      "transactionType": "CALL",
      "contractName": null,
      "contractAddress": "0x23676acd868fd160e025b14ca8fcc297c8b47802",
      "function": "applyChainUpdates((uint64,bool,bytes,bytes,(bool,uint128,uint128),(bool,uint128,uint128))[])",
      "arguments": [
        "[(6898391096552792247, true, 0x000000000000000000000000d07fddd2d85572a774f0e536bee1dd0fde0b08bf, 0x0000000000000000000000009ae100f82726fd1967517b9cf9413c087b1a82f0, (false, 0, 0), (false, 0, 0))]"
      ],
      "transaction": {
        "from": "0xe4267c260090f0cd85aae5dcf1bf581f81df81c6",
        "to": "0x23676acd868fd160e025b14ca8fcc297c8b47802",
        "gas": "0x525cc",
        "value": "0x0",
        "input": "0xdb6327dc0000000000000000000000000000000000000000000000000000000000000020000000000000000000000000000000000000000000000000000000000000000100000000000000000000000000000000000000000000000000000000000000200000000000000000000000000000000000000000000000005fbc02272fbf20b70000000000000000000000000000000000000000000000000000000000000001000000000000000000000000000000000000000000000000000000000000014000000000000000000000000000000000000000000000000000000000000001800000000000000000000000000000000000000000000000000000000000000000000000000000000000000000000000000000000000000000000000000000000000000000000000000000000000000000000000000000000000000000000000000000000000000000000000000000000000000000000000000000000000000000000000000000000000000000000000000000000000000000000000000000000000000000000000000000000000000000000000000000000000000000000000000000000000000000000000000000000000000000000000000000000000000020000000000000000000000000d07fddd2d85572a774f0e536bee1dd0fde0b08bf00000000000000000000000000000000000000000000000000000000000000200000000000000000000000009ae100f82726fd1967517b9cf9413c087b1a82f0",
        "nonce": "0x135",
        "chainId": "0xaa36a7"
      },
      "additionalContracts": [],
      "isFixedGasLimit": false
    }
  ],
  "receipts": [
    {
      "status": "0x1",
      "cumulativeGasUsed": "0xabd26b",
      "logs": [
        {
          "address": "0x23676acd868fd160e025b14ca8fcc297c8b47802",
          "topics": [
            "0x8d340f17e19058004c20453540862a9c62778504476f6756755cb33bcd6c38c2"
          ],
          "data": "0x0000000000000000000000000000000000000000000000005fbc02272fbf20b7000000000000000000000000000000000000000000000000000000000000010000000000000000000000000000000000000000000000000000000000000000000000000000000000000000000000000000000000000000000000000000000000000000000000000000000000000000000000000000000000000000000000000000000000000000000000000000000000000000000000000000000000000000000000000000000000000000000000000000000000000000000000000000000000000000000000000000000000000000000000000000000000000000000000000000000000000000000000000000000000000000000000000000000000000000200000000000000000000000009ae100f82726fd1967517b9cf9413c087b1a82f0",
          "blockHash": "0xf6c5495bce3810e541e1e1aaf263dc0395b1ffa3096f047a427d03453635307f",
          "blockNumber": "0x96af20",
          "blockTimestamp": "0x6945bd60",
          "transactionHash": "0xb5414c0165cbfaf5c209b79dead9211cbd715b137fface0f3ce7015c7fac585f",
          "transactionIndex": "0x27",
          "logIndex": "0x155",
          "removed": false
        }
      ],
      "logsBloom": "0x00000000000000400000000000000000000000000000000000000000000000000000000000000000000000000000000000000000000000000004000000000000000000000000000000000000000000000000000000000000000000000000000000000000000000000000000000000000000000000000000000000000000000000000000200000000000000000000000000000000000000000000000000000000000000000000000000000000004000000000000000000000000000000020000000000000000000000000000000000000000000000000000000000000000000000000000000000000000000000000000000000000000000000100000000000000",
      "type": "0x2",
      "transactionHash": "0xb5414c0165cbfaf5c209b79dead9211cbd715b137fface0f3ce7015c7fac585f",
      "transactionIndex": "0x27",
      "blockHash": "0xf6c5495bce3810e541e1e1aaf263dc0395b1ffa3096f047a427d03453635307f",
      "blockNumber": "0x96af20",
      "gasUsed": "0x3ba10",
      "effectiveGasPrice": "0x11735d",
      "from": "0xe4267c260090f0cd85aae5dcf1bf581f81df81c6",
      "to": "0x23676acd868fd160e025b14ca8fcc297c8b47802",
      "contractAddress": null
    }
  ],
  "libraries": [],
  "pending": [],
  "returns": {},
  "timestamp": 1766178144353,
  "chain": 11155111,
  "commit": "c9adba2"
}