{
  "transactions": [
    {
      "hash": "0x56f2fb3a044f7d58e54da0882277e02becec4093353bc9fe785f13187fbeef9e",
      "transactionType": "CALL",
      "contractName": null,
      "contractAddress": "0xa3d5af8859e48d27cebbbd255a4060c5d6bae2cd",
      "function": "applyChainUpdates((uint64,bool,bytes,bytes,(bool,uint128,uint128),(bool,uint128,uint128))[])",
      "arguments": [
        "[(6898391096552792247, true, 0x000000000000000000000000c9bf33bafc2f8e1f88f33aed1f06f7bc95acd63d, 0x000000000000000000000000296068eeb4025f8e130be6cef5df141e1928bbb7, (false, 0, 0), (false, 0, 0))]"
      ],
      "transaction": {
        "from": "0xe4267c260090f0cd85aae5dcf1bf581f81df81c6",
        "to": "0xa3d5af8859e48d27cebbbd255a4060c5d6bae2cd",
        "gas": "0x525dc",
        "value": "0x0",
        "input": "0xdb6327dc0000000000000000000000000000000000000000000000000000000000000020000000000000000000000000000000000000000000000000000000000000000100000000000000000000000000000000000000000000000000000000000000200000000000000000000000000000000000000000000000005fbc02272fbf20b70000000000000000000000000000000000000000000000000000000000000001000000000000000000000000000000000000000000000000000000000000014000000000000000000000000000000000000000000000000000000000000001800000000000000000000000000000000000000000000000000000000000000000000000000000000000000000000000000000000000000000000000000000000000000000000000000000000000000000000000000000000000000000000000000000000000000000000000000000000000000000000000000000000000000000000000000000000000000000000000000000000000000000000000000000000000000000000000000000000000000000000000000000000000000000000000000000000000000000000000000000000000000000000000000000000000000020000000000000000000000000c9bf33bafc2f8e1f88f33aed1f06f7bc95acd63d0000000000000000000000000000000000000000000000000000000000000020000000000000000000000000296068eeb4025f8e130be6cef5df141e1928bbb7",
        "nonce": "0x118",
        "chainId": "0xaa36a7"
      },
      "additionalContracts": [],
      "isFixedGasLimit": false
    }
  ],
  "receipts": [
    {
      "status": "0x1",
      "cumulativeGasUsed": "0x1603786",
      "logs": [
        {
          "address": "0xa3d5af8859e48d27cebbbd255a4060c5d6bae2cd",
          "topics": [
            "0x8d340f17e19058004c20453540862a9c62778504476f6756755cb33bcd6c38c2"
          ],
          "data": "0x0000000000000000000000000000000000000000000000005fbc02272fbf20b700000000000000000000000000000000000000000000000000000000000001000000000000000000000000000000000000000000000000000000000000000000000000000000000000000000000000000000000000000000000000000000000000000000000000000000000000000000000000000000000000000000000000000000000000000000000000000000000000000000000000000000000000000000000000000000000000000000000000000000000000000000000000000000000000000000000000000000000000000000000000000000000000000000000000000000000000000000000000000000000000000000000000000000000000000020000000000000000000000000296068eeb4025f8e130be6cef5df141e1928bbb7",
          "blockHash": "0xdfc5d3ab77ab6f4ed03cf3c3cf66a94d34521bfd53d01f85eb8b12501fbf978e",
          "blockNumber": "0x96a75a",
          "blockTimestamp": "0x6945564c",
          "transactionHash": "0x56f2fb3a044f7d58e54da0882277e02becec4093353bc9fe785f13187fbeef9e",
          "transactionIndex": "0x41",
          "logIndex": "0x1f5",
          "removed": false
        }
      ],
      "logsBloom": "0x00000000000000400000001000000000000000000000000000000000000000000000000000000000000000000000000000000000000000000004000000000000000000000000000000000000000000000000000000000000000000000000000000000000000000000100000000000000000000000000000000000000000000000000000000000000000000000000000000000000000000000000000000000000000000000000000000000000000000000000000000000000000000000000000000000000000000000000000000000000000000000000000000000000000000000000000000000040000000000000000000000000000000000100000000000000",
      "type": "0x2",
      "transactionHash": "0x56f2fb3a044f7d58e54da0882277e02becec4093353bc9fe785f13187fbeef9e",
      "transactionIndex": "0x41",
      "blockHash": "0xdfc5d3ab77ab6f4ed03cf3c3cf66a94d34521bfd53d01f85eb8b12501fbf978e",
      "blockNumber": "0x96a75a",
      "gasUsed": "0x3ba1c",
      "effectiveGasPrice": "0x11dff8",
      "from": "0xe4267c260090f0cd85aae5dcf1bf581f81df81c6",
      "to": "0xa3d5af8859e48d27cebbbd255a4060c5d6bae2cd",
      "contractAddress": null
    }
  ],
  "libraries": [],
  "pending": [],
  "returns": {},
  "timestamp": 1766151756174,
  "chain": 11155111,
  "commit": "c9adba2"
}