{
  "transactions": [
    {
      "hash": "0xbb8116f4084303ae537798cec601e6d9d7f99aa9ce84271b372ceb62ff0ac8e5",
      "transactionType": "CALL",
      "contractName": null,
      "contractAddress": "0x8029c56c7a577e5174fd57147f9be21175d3b37d",
      "function": "applyChainUpdates((uint64,bool,bytes,bytes,(bool,uint128,uint128),(bool,uint128,uint128))[])",
      "arguments": [
        "[(6898391096552792247, true, 0x00000000000000000000000055b8846e80d6b718f85da080ab5df12cf14fd961, 0x00000000000000000000000062d3070d00a4d9712be652626f3d6607bcbeeb76, (false, 0, 0), (false, 0, 0))]"
      ],
      "transaction": {
        "from": "0xe4267c260090f0cd85aae5dcf1bf581f81df81c6",
        "to": "0x8029c56c7a577e5174fd57147f9be21175d3b37d",
        "gas": "0x525cc",
        "value": "0x0",
        "input": "0xdb6327dc0000000000000000000000000000000000000000000000000000000000000020000000000000000000000000000000000000000000000000000000000000000100000000000000000000000000000000000000000000000000000000000000200000000000000000000000000000000000000000000000005fbc02272fbf20b7000000000000000000000000000000000000000000000000000000000000000100000000000000000000000000000000000000000000000000000000000001400000000000000000000000000000000000000000000000000000000000000180000000000000000000000000000000000000000000000000000000000000000000000000000000000000000000000000000000000000000000000000000000000000000000000000000000000000000000000000000000000000000000000000000000000000000000000000000000000000000000000000000000000000000000000000000000000000000000000000000000000000000000000000000000000000000000000000000000000000000000000000000000000000000000000000000000000000000000000000000000000000000000000000000000000000002000000000000000000000000055b8846e80d6b718f85da080ab5df12cf14fd961000000000000000000000000000000000000000000000000000000000000002000000000000000000000000062d3070d00a4d9712be652626f3d6607bcbeeb76",
        "nonce": "0x122",
        "chainId": "0xaa36a7"
      },
      "additionalContracts": [],
      "isFixedGasLimit": false
    }
  ],
  "receipts": [
    {
      "status": "0x1",
      "cumulativeGasUsed": "0x1744e4f",
      "logs": [
        {
          "address": "0x8029c56c7a577e5174fd57147f9be21175d3b37d",
          "topics": [
            "0x8d340f17e19058004c20453540862a9c62778504476f6756755cb33bcd6c38c2"
          ],
          "data": "0x0000000000000000000000000000000000000000000000005fbc02272fbf20b70000000000000000000000000000000000000000000000000000000000000100000000000000000000000000000000000000000000000000000000000000000000000000000000000000000000000000000000000000000000000000000000000000000000000000000000000000000000000000000000000000000000000000000000000000000000000000000000000000000000000000000000000000000000000000000000000000000000000000000000000000000000000000000000000000000000000000000000000000000000000000000000000000000000000000000000000000000000000000000000000000000000000000000000000000002000000000000000000000000062d3070d00a4d9712be652626f3d6607bcbeeb76",
          "blockHash": "0x655cc9abfbd0d41dc31c0f692bf8163cb5472b415ce342fe97f0c0a8381eeddf",
          "blockNumber": "0x96a7be",
          "blockTimestamp": "0x69455b8c",
          "transactionHash": "0xbb8116f4084303ae537798cec601e6d9d7f99aa9ce84271b372ceb62ff0ac8e5",
          "transactionIndex": "0x4e",
          "logIndex": "0x263",
          "removed": false
        }
      ],
      "logsBloom": "0x00000000000000400000000000000000000000000000000000000000000000000400000000000000000000000000000000000000000000000004000000000000000000000000000000000000000000000000000000000008000000000000000000000000000000000000000000000000000000000000000000000000000000000000000000000000000000000000000000000000000000000000000000000000000000000000000000000000000000000000000000000000000000000000000000010000000000000000000000000000000000000000000000000000000000000000000000000000000000000000000000000000000000000100000000000000",
      "type": "0x2",
      "transactionHash": "0xbb8116f4084303ae537798cec601e6d9d7f99aa9ce84271b372ceb62ff0ac8e5",
      "transactionIndex": "0x4e",
      "blockHash": "0x655cc9abfbd0d41dc31c0f692bf8163cb5472b415ce342fe97f0c0a8381eeddf",
      "blockNumber": "0x96a7be",
      "gasUsed": "0x3ba10",
      "effectiveGasPrice": "0x11a0f4",
      "from": "0xe4267c260090f0cd85aae5dcf1bf581f81df81c6",
      "to": "0x8029c56c7a577e5174fd57147f9be21175d3b37d",
      "contractAddress": null
    }
  ],
  "libraries": [],
  "pending": [],
  "returns": {},
  "timestamp": 1766153100006,
  "chain": 11155111,
  "commit": "c9adba2"
}