{
  "transactions": [
    {
      "hash": "0xafc59dd060d2e0f6c04dc241c8115e856794f3d3e3aaf82630da27b47acd9a06",
      "transactionType": "CALL",
      "contractName": null,
      "contractAddress": "0x779877a7b0d9e8603169ddbd7836e478b4624789",
      "function": "approve(address,uint256)",
      "arguments": [
        "0x0BF3dE8c5D3e8A2B34D2BEeB17ABfCeBaf363A59",
        "21235747443923080"
      ],
      "transaction": {
        "from": "0xe4267c260090f0cd85aae5dcf1bf581f81df81c6",
        "to": "0x779877a7b0d9e8603169ddbd7836e478b4624789",
        "gas": "0x1081f",
        "value": "0x0",
        "input": "0x095ea7b30000000000000000000000000bf3de8c5d3e8a2b34d2beeb17abfcebaf363a59000000000000000000000000000000000000000000000000004b71ccbeef5888",
        "nonce": "0x137",
        "chainId": "0xaa36a7"
      },
      "additionalContracts": [],
      "isFixedGasLimit": false
    },
    {
      "hash": "0x0db3a1d2c743e92c7ade93d8f90836611433a6f5bee4e5209fbe861a21ae23bd",
      "transactionType": "CALL",
      "contractName": null,
      "contractAddress": "0xbec70fe811a50874f1d4b92a034d889703d23467",
      "function": "approve(address,uint256)",
      "arguments": [
        "0x0BF3dE8c5D3e8A2B34D2BEeB17ABfCeBaf363A59",
        "100000"
      ],
      "transaction": {
        "from": "0xe4267c260090f0cd85aae5dcf1bf581f81df81c6",
        "to": "0xbec70fe811a50874f1d4b92a034d889703d23467",
        "gas": "0x10c27",
        "value": "0x0",
        "input": "0x095ea7b30000000000000000000000000bf3de8c5d3e8a2b34d2beeb17abfcebaf363a5900000000000000000000000000000000000000000000000000000000000186a0",
        "nonce": "0x138",
        "chainId": "0xaa36a7"
      },
      "additionalContracts": [],
      "isFixedGasLimit": false
    },
    {
      "hash": "0x215eb76f8f37ff867ddc5eb92d01a2c6b38c2f4ee31c4616d110a52dccf84a97",
      "transactionType": "CALL",
      "contractName": null,
      "contractAddress": "0x0bf3de8c5d3e8a2b34d2beeb17abfcebaf363a59",
      "function": "ccipSend(uint64,(bytes,bytes,(address,uint256)[],address,bytes))",
      "arguments": [
        "6898391096552792247",
        "(0x000000000000000000000000e4267c260090f0cd85aae5dcf1bf581f81df81c6, 0x, [(0xBEc70fe811a50874F1D4b92A034D889703D23467, 100000)], 0x779877A7B0D9E8603169DdbD7836e478b4624789, 0x97a657c90000000000000000000000000000000000000000000000000000000000000000)"
      ],
      "transaction": {
        "from": "0xe4267c260090f0cd85aae5dcf1bf581f81df81c6",
        "to": "0x0bf3de8c5d3e8a2b34d2beeb17abfcebaf363a59",
        "gas": "0x5bcc4",
        "value": "0x0",
        "input": "0x96f4e9f90000000000000000000000000000000000000000000000005fbc02272fbf20b7000000000000000000000000000000000000000000000000000000000000004000000000000000000000000000000000000000000000000000000000000000a000000000000000000000000000000000000000000000000000000000000000e00000000000000000000000000000000000000000000000000000000000000100000000000000000000000000779877a7b0d9e8603169ddbd7836e478b462478900000000000000000000000000000000000000000000000000000000000001600000000000000000000000000000000000000000000000000000000000000020000000000000000000000000e4267c260090f0cd85aae5dcf1bf581f81df81c600000000000000000000000000000000000000000000000000000000000000000000000000000000000000000000000000000000000000000000000000000001000000000000000000000000bec70fe811a50874f1d4b92a034d889703d2346700000000000000000000000000000000000000000000000000000000000186a0000000000000000000000000000000000000000000000000000000000000002497a657c9000000000000000000000000000000000000000000000000000000000000000000000000000000000000000000000000000000000000000000000000",
        "nonce": "0x139",
        "chainId": "0xaa36a7"
      },
      "additionalContracts": [],
      "isFixedGasLimit": false
    }
  ],
  "receipts": [
    {
      "status": "0x1",
      "cumulativeGasUsed": "0x33d2939",
      "logs": [
        {
          "address": "0x779877a7b0d9e8603169ddbd7836e478b4624789",
          "topics": [
            "0x8c5be1e5ebec7d5bd14f71427d1e84f3dd0314c0f7b2291e5b200ac8c7c3b925",
            "0x000000000000000000000000e4267c260090f0cd85aae5dcf1bf581f81df81c6",
            "0x0000000000000000000000000bf3de8c5d3e8a2b34d2beeb17abfcebaf363a59"
          ],
          "data": "0x000000000000000000000000000000000000000000000000004b71ccbeef5888",
          "blockHash": "0x6d11aa68ec5f8c19d6229aff112f6db619a97181dbccb71812a49dd299b59e75",
          "blockNumber": "0x96af25",
          "blockTimestamp": "0x6945bdb4",
          "transactionHash": "0x0db3a1d2c743e92c7ade93d8f90836611433a6f5bee4e5209fbe861a21ae23bd",
          "transactionIndex": "0x67",
          "logIndex": "0x558",
          "removed": false
        }
      ],
      "logsBloom": "0x00000004000040000000000000000000000000000000000000000000000000000000000000000000000000000000000000000000000000000000000000200000000000000000000000000000000000000000000000000000000000000000000000000000000100000000000000000000000000000000000000004000000000000000000000000000000000000000800010000000000000000000000000000000020000000000080000000000000000000000000000000000000000000000000000000000000000000000000000000000000000000000000100000000000000000010000000000000002000000000000000000000000000000000000000000000",
      "type": "0x2",
      "transactionHash": "0x0db3a1d2c743e92c7ade93d8f90836611433a6f5bee4e5209fbe861a21ae23bd",
      "transactionIndex": "0x67",
      "blockHash": "0x6d11aa68ec5f8c19d6229aff112f6db619a97181dbccb71812a49dd299b59e75",
      "blockNumber": "0x96af25",
      "gasUsed": "0xb499",
      "effectiveGasPrice": "0x11534f",
      "from": "0xe4267c260090f0cd85aae5dcf1bf581f81df81c6",
      "to": "0x779877a7b0d9e8603169ddbd7836e478b4624789",
      "contractAddress": null
    },
    {
      "status": "0x1",
      "cumulativeGasUsed": "0x33de094",
      "logs": [
        {
          "address": "0xbec70fe811a50874f1d4b92a034d889703d23467",
          "topics": [
            "0x8c5be1e5ebec7d5bd14f71427d1e84f3dd0314c0f7b2291e5b200ac8c7c3b925",
            "0x000000000000000000000000e4267c260090f0cd85aae5dcf1bf581f81df81c6",
            "0x0000000000000000000000000bf3de8c5d3e8a2b34d2beeb17abfcebaf363a59"
          ],
          "data": "0x00000000000000000000000000000000000000000000000000000000000186a0",
          "blockHash": "0x6d11aa68ec5f8c19d6229aff112f6db619a97181dbccb71812a49dd299b59e75",
          "blockNumber": "0x96af25",
          "blockTimestamp": "0x6945bdb4",
          "transactionHash": "0xafc59dd060d2e0f6c04dc241c8115e856794f3d3e3aaf82630da27b47acd9a06",
          "transactionIndex": "0x68",
          "logIndex": "0x559",
          "removed": false
        }
      ],
      "logsBloom": "0x00000000000040000000000000000000000000000000000000000000000000000000000000000000000000000000008000000000000000000000000000200000000000000000000000000000000000000000000000000000000000000000000000000000000100000000000000000000000400000000000000004000000000000000000000000000000000000000000010000000000000000000000000000000020000000000080000000000000000000000000000000000000000000000000000000000000000000000000000000000000000000000000000000000000000000010000000200000002000000000000000000000000000000000000000000000",
      "type": "0x2",
      "transactionHash": "0xafc59dd060d2e0f6c04dc241c8115e856794f3d3e3aaf82630da27b47acd9a06",
      "transactionIndex": "0x68",
      "blockHash": "0x6d11aa68ec5f8c19d6229aff112f6db619a97181dbccb71812a49dd299b59e75",
      "blockNumber": "0x96af25",
      "gasUsed": "0xb75b",
      "effectiveGasPrice": "0x11534f",
      "from": "0xe4267c260090f0cd85aae5dcf1bf581f81df81c6",
      "to": "0xbec70fe811a50874f1d4b92a034d889703d23467",
      "contractAddress": null
    },
    {
      "status": "0x1",
      "cumulativeGasUsed": "0x34207f1",
      "logs": [
        {
          "address": "0x779877a7b0d9e8603169ddbd7836e478b4624789",
          "topics": [
            "0xddf252ad1be2c89b69c2b068fc378daa952ba7f163c4a11628f55a4df523b3ef",
            "0x000000000000000000000000e4267c260090f0cd85aae5dcf1bf581f81df81c6",
            "0x000000000000000000000000a2865e4f36760f5fa5c8f958336120f2df0d974b"
          ],
          "data": "0x000000000000000000000000000000000000000000000000004b71ccbeef5888",
          "blockHash": "0x6d11aa68ec5f8c19d6229aff112f6db619a97181dbccb71812a49dd299b59e75",
          "blockNumber": "0x96af25",
          "blockTimestamp": "0x6945bdb4",
          "transactionHash": "0x215eb76f8f37ff867ddc5eb92d01a2c6b38c2f4ee31c4616d110a52dccf84a97",
          "transactionIndex": "0x69",
          "logIndex": "0x55a",
          "removed": false
        },
        {
          "address": "0x779877a7b0d9e8603169ddbd7836e478b4624789",
          "topics": [
            "0x8c5be1e5ebec7d5bd14f71427d1e84f3dd0314c0f7b2291e5b200ac8c7c3b925",
            "0x000000000000000000000000e4267c260090f0cd85aae5dcf1bf581f81df81c6",
            "0x0000000000000000000000000bf3de8c5d3e8a2b34d2beeb17abfcebaf363a59"
          ],
          "data": "0x0000000000000000000000000000000000000000000000000000000000000000",
          "blockHash": "0x6d11aa68ec5f8c19d6229aff112f6db619a97181dbccb71812a49dd299b59e75",
          "blockNumber": "0x96af25",
          "blockTimestamp": "0x6945bdb4",
          "transactionHash": "0x215eb76f8f37ff867ddc5eb92d01a2c6b38c2f4ee31c4616d110a52dccf84a97",
          "transactionIndex": "0x69",
          "logIndex": "0x55b",
          "removed": false
        },
        {
          "address": "0xbec70fe811a50874f1d4b92a034d889703d23467",
          "topics": [
            "0xddf252ad1be2c89b69c2b068fc378daa952ba7f163c4a11628f55a4df523b3ef",
            "0x0000000000000000000000000000000000000000000000000000000000000000",
            "0x000000000000000000000000e4267c260090f0cd85aae5dcf1bf581f81df81c6"
          ],
          "data": "0x0000000000000000000000000000000000000000000000000000000000000000",
          "blockHash": "0x6d11aa68ec5f8c19d6229aff112f6db619a97181dbccb71812a49dd299b59e75",
          "blockNumber": "0x96af25",
          "blockTimestamp": "0x6945bdb4",
          "transactionHash": "0x215eb76f8f37ff867ddc5eb92d01a2c6b38c2f4ee31c4616d110a52dccf84a97",
          "transactionIndex": "0x69",
          "logIndex": "0x55c",
          "removed": false
        },
        {
          "address": "0xbec70fe811a50874f1d4b92a034d889703d23467",
          "topics": [
            "0xddf252ad1be2c89b69c2b068fc378daa952ba7f163c4a11628f55a4df523b3ef",
            "0x0000000000000000000000000000000000000000000000000000000000000000",
            "0x00000000000000000000000023676acd868fd160e025b14ca8fcc297c8b47802"
          ],
          "data": "0x0000000000000000000000000000000000000000000000000000000000000000",
          "blockHash": "0x6d11aa68ec5f8c19d6229aff112f6db619a97181dbccb71812a49dd299b59e75",
          "blockNumber": "0x96af25",
          "blockTimestamp": "0x6945bdb4",
          "transactionHash": "0x215eb76f8f37ff867ddc5eb92d01a2c6b38c2f4ee31c4616d110a52dccf84a97",
          "transactionIndex": "0x69",
          "logIndex": "0x55d",
          "removed": false
        },
        {
          "address": "0xbec70fe811a50874f1d4b92a034d889703d23467",
          "topics": [
            "0xddf252ad1be2c89b69c2b068fc378daa952ba7f163c4a11628f55a4df523b3ef",
            "0x000000000000000000000000e4267c260090f0cd85aae5dcf1bf581f81df81c6",
            "0x00000000000000000000000023676acd868fd160e025b14ca8fcc297c8b47802"
          ],
          "data": "0x00000000000000000000000000000000000000000000000000000000000186a0",
          "blockHash": "0x6d11aa68ec5f8c19d6229aff112f6db619a97181dbccb71812a49dd299b59e75",
          "blockNumber": "0x96af25",
          "blockTimestamp": "0x6945bdb4",
          "transactionHash": "0x215eb76f8f37ff867ddc5eb92d01a2c6b38c2f4ee31c4616d110a52dccf84a97",
          "transactionIndex": "0x69",
          "logIndex": "0x55e",
          "removed": false
        },
        {
          "address": "0xbec70fe811a50874f1d4b92a034d889703d23467",
          "topics": [
            "0xddf252ad1be2c89b69c2b068fc378daa952ba7f163c4a11628f55a4df523b3ef",
            "0x0000000000000000000000000000000000000000000000000000000000000000",
            "0x00000000000000000000000023676acd868fd160e025b14ca8fcc297c8b47802"
          ],
          "data": "0x0000000000000000000000000000000000000000000000000000000000000000",
          "blockHash": "0x6d11aa68ec5f8c19d6229aff112f6db619a97181dbccb71812a49dd299b59e75",
          "blockNumber": "0x96af25",
          "blockTimestamp": "0x6945bdb4",
          "transactionHash": "0x215eb76f8f37ff867ddc5eb92d01a2c6b38c2f4ee31c4616d110a52dccf84a97",
          "transactionIndex": "0x69",
          "logIndex": "0x55f",
          "removed": false
        },
        {
          "address": "0xbec70fe811a50874f1d4b92a034d889703d23467",
          "topics": [
            "0xddf252ad1be2c89b69c2b068fc378daa952ba7f163c4a11628f55a4df523b3ef",
            "0x00000000000000000000000023676acd868fd160e025b14ca8fcc297c8b47802",
            "0x0000000000000000000000000000000000000000000000000000000000000000"
          ],
          "data": "0x00000000000000000000000000000000000000000000000000000000000186a0",
          "blockHash": "0x6d11aa68ec5f8c19d6229aff112f6db619a97181dbccb71812a49dd299b59e75",
          "blockNumber": "0x96af25",
          "blockTimestamp": "0x6945bdb4",
          "transactionHash": "0x215eb76f8f37ff867ddc5eb92d01a2c6b38c2f4ee31c4616d110a52dccf84a97",
          "transactionIndex": "0x69",
          "logIndex": "0x560",
          "removed": false
        },
        {
          "address": "0xa2865e4f36760f5fa5c8f958336120f2df0d974b",
          "topics": [
            "0xd0c3c799bf9e2639de44391e7f524d229b2b55f5b1ea94b2bf7da42f7243dddd"
          ],
          "data": "0x0000000000000000000000000000000000000000000000000000000000000020000000000000000000000000000000000000000000000000de41ba4fc9d91ad9000000000000000000000000e4267c260090f0cd85aae5dcf1bf581f81df81c6000000000000000000000000e4267c260090f0cd85aae5dcf1bf581f81df81c60000000000000000000000000000000000000000000000000000000000000335000000000000000000000000000000000000000000000000000000000000000000000000000000000000000000000000000000000000000000000000000000000000000000000000000000000000000000000000000000000000000000000001000000000000000000000000779877a7b0d9e8603169ddbd7836e478b4624789000000000000000000000000000000000000000000000000004b71ccbeef588800000000000000000000000000000000000000000000000000000000000001a000000000000000000000000000000000000000000000000000000000000001c0000000000000000000000000000000000000000000000000000000000000022096397d1d91380df2ca53341623cd6eee259dbc6407361c4fccbb4aaa6ed2696d00000000000000000000000000000000000000000000000000000000000000000000000000000000000000000000000000000000000000000000000000000001000000000000000000000000bec70fe811a50874f1d4b92a034d889703d2346700000000000000000000000000000000000000000000000000000000000186a00000000000000000000000000000000000000000000000000000000000000001000000000000000000000000000000000000000000000000000000000000002000000000000000000000000000000000000000000000000000000000000001600000000000000000000000000000000000000000000000000000000000000020000000000000000000000000000000000000000000000000000000000000008000000000000000000000000000000000000000000000000000000000000000c000000000000000000000000000000000000000000000000000000000000001000000000000000000000000000000000000000000000000000000000000015f90000000000000000000000000000000000000000000000000000000000000002000000000000000000000000023676acd868fd160e025b14ca8fcc297c8b4780200000000000000000000000000000000000000000000000000000000000000200000000000000000000000009ae100f82726fd1967517b9cf9413c087b1a82f000000000000000000000000000000000000000000000000000000000000000200000000000000000000000000000000000000000000000000000000ba43b7400",
          "blockHash": "0x6d11aa68ec5f8c19d6229aff112f6db619a97181dbccb71812a49dd299b59e75",
          "blockNumber": "0x96af25",
          "blockTimestamp": "0x6945bdb4",
          "transactionHash": "0x215eb76f8f37ff867ddc5eb92d01a2c6b38c2f4ee31c4616d110a52dccf84a97",
          "transactionIndex": "0x69",
          "logIndex": "0x561",
          "removed": false
        }
      ],
      "logsBloom": "0x00000004000040000000000000000000000000000000000000000000000000000000000000000000000000000000008000000000000000000000000000200000000000000000000000000008000000000000000000000000000000000000000010000000020100100000000000000800000400000000100000004010000000000000000000000000000000000000800010000000000000000000000000000000020000000000080400000000000000000000000200000000000100010000000020000002000000000000000000000000000000000100000100000000000020000010800000200000002000000000000004000800000000000000000000000000",
      "type": "0x2",
      "transactionHash": "0x215eb76f8f37ff867ddc5eb92d01a2c6b38c2f4ee31c4616d110a52dccf84a97",
      "transactionIndex": "0x69",
      "blockHash": "0x6d11aa68ec5f8c19d6229aff112f6db619a97181dbccb71812a49dd299b59e75",
      "blockNumber": "0x96af25",
      "gasUsed": "0x4275d",
      "effectiveGasPrice": "0x11534f",
      "from": "0xe4267c260090f0cd85aae5dcf1bf581f81df81c6",
      "to": "0x0bf3de8c5d3e8a2b34d2beeb17abfcebaf363a59",
      "contractAddress": null
    }
  ],
  "libraries": [],
  "pending": [],
  "returns": {},
  "timestamp": 1766178228604,
  "chain": 11155111,
  "commit": "c9adba2"
}